{
	"contracts/Basics101.sol": {
		"Basics101": {
			"abi": [
				{
					"inputs": [],
					"name": "blockTime",
					"outputs": [
						{
							"internalType": "uint256",
							"name": "",
							"type": "uint256"
						}
					],
					"stateMutability": "view",
					"type": "function"
				},
				{
					"inputs": [],
					"name": "myBalance",
					"outputs": [
						{
							"internalType": "uint256",
							"name": "",
							"type": "uint256"
						}
					],
					"stateMutability": "view",
					"type": "function"
				},
				{
					"inputs": [],
					"name": "sender",
					"outputs": [
						{
							"internalType": "address",
							"name": "",
							"type": "address"
						}
					],
					"stateMutability": "view",
					"type": "function"
				},
				{
					"inputs": [
						{
							"internalType": "uint256",
							"name": "",
							"type": "uint256"
						}
					],
					"name": "tokenNames",
					"outputs": [
						{
							"internalType": "string",
							"name": "",
							"type": "string"
						}
					],
					"stateMutability": "view",
					"type": "function"
				}
			],
			"devdoc": {
				"kind": "dev",
				"methods": {},
				"version": 1
			},
			"evm": {
				"assembly": "    /* \"contracts/Basics101.sol\":62:608  contract Basics101 {... */\n  mstore(0x40, 0x80)\n    /* \"contracts/Basics101.sol\":139:141  30 */\n  0x1e\n    /* \"contracts/Basics101.sol\":112:141  uint256 public myBalance = 30 */\n  0x00\n  sstore\n    /* \"contracts/Basics101.sol\":192:194  -4 */\n  0xfffffffffffffffffffffffffffffffffffffffffffffffffffffffffffffffc\n    /* \"contracts/Basics101.sol\":166:194  int256 private txAmount = -4 */\n  0x01\n  sstore\n    /* \"contracts/Basics101.sol\":263:301  string internal coinName = \"Epic Coin\" */\n  mload(0x40)\n  dup1\n  0x40\n  add\n  0x40\n  mstore\n  dup1\n  0x09\n  dup2\n  mstore\n  0x20\n  add\n  0x4570696320436f696e0000000000000000000000000000000000000000000000\n  dup2\n  mstore\n  pop\n  0x02\n  swap1\n  dup1\n  mload\n  swap1\n  0x20\n  add\n  swap1\n  tag_1\n  swap3\n  swap2\n  swap1\n  tag_2\n  jump\t// in\ntag_1:\n  pop\n    /* \"contracts/Basics101.sol\":390:394  true */\n  0x01\n    /* \"contracts/Basics101.sol\":375:394  bool isValid = true */\n  0x03\n  exp(0x0100, 0x00)\n  dup2\n  sload\n  dup2\n  0xff\n  mul\n  not\n  and\n  swap1\n  dup4\n  iszero\n  iszero\n  mul\n  or\n  swap1\n  sstore\n  pop\n    /* \"contracts/Basics101.sol\":463:478  block.timestamp */\n  timestamp\n    /* \"contracts/Basics101.sol\":436:478  uint256 public blockTime = block.timestamp */\n  0x04\n  sstore\n    /* \"contracts/Basics101.sol\":508:518  msg.sender */\n  caller\n    /* \"contracts/Basics101.sol\":484:518  address public sender = msg.sender */\n  0x05\n  exp(0x0100, 0x00)\n  dup2\n  sload\n  dup2\n  0xffffffffffffffffffffffffffffffffffffffff\n  mul\n  not\n  and\n  swap1\n  dup4\n  0xffffffffffffffffffffffffffffffffffffffff\n  and\n  mul\n  or\n  swap1\n  sstore\n  pop\n    /* \"contracts/Basics101.sol\":539:605  string[] public tokenNames = ['ChainLink', 'Polygon', 'DodgeCoin'] */\n  mload(0x40)\n  dup1\n  0x60\n  add\n  0x40\n  mstore\n  dup1\n  mload(0x40)\n  dup1\n  0x40\n  add\n  0x40\n  mstore\n  dup1\n  0x09\n  dup2\n  mstore\n  0x20\n  add\n  0x436861696e4c696e6b0000000000000000000000000000000000000000000000\n  dup2\n  mstore\n  pop\n  dup2\n  mstore\n  0x20\n  add\n  mload(0x40)\n  dup1\n  0x40\n  add\n  0x40\n  mstore\n  dup1\n  0x07\n  dup2\n  mstore\n  0x20\n  add\n  0x506f6c79676f6e00000000000000000000000000000000000000000000000000\n  dup2\n  mstore\n  pop\n  dup2\n  mstore\n  0x20\n  add\n  mload(0x40)\n  dup1\n  0x40\n  add\n  0x40\n  mstore\n  dup1\n  0x09\n  dup2\n  mstore\n  0x20\n  add\n  0x446f646765436f696e0000000000000000000000000000000000000000000000\n  dup2\n  mstore\n  pop\n  dup2\n  mstore\n  pop\n  0x06\n  swap1\n  0x03\n  tag_3\n  swap3\n  swap2\n  swap1\n  tag_4\n  jump\t// in\ntag_3:\n  pop\n    /* \"contracts/Basics101.sol\":62:608  contract Basics101 {... */\n  callvalue\n  dup1\n  iszero\n  tag_5\n  jumpi\n  0x00\n  dup1\n  revert\ntag_5:\n  pop\n  jump(tag_6)\ntag_2:\n  dup3\n  dup1\n  sload\n  tag_7\n  swap1\n  tag_8\n  jump\t// in\ntag_7:\n  swap1\n  0x00\n  mstore\n  keccak256(0x00, 0x20)\n  swap1\n  0x1f\n  add\n  0x20\n  swap1\n  div\n  dup2\n  add\n  swap3\n  dup3\n  tag_10\n  jumpi\n  0x00\n  dup6\n  sstore\n  jump(tag_9)\ntag_10:\n  dup3\n  0x1f\n  lt\n  tag_11\n  jumpi\n  dup1\n  mload\n  not(0xff)\n  and\n  dup4\n  dup1\n  add\n  or\n  dup6\n  sstore\n  jump(tag_9)\ntag_11:\n  dup3\n  dup1\n  add\n  0x01\n  add\n  dup6\n  sstore\n  dup3\n  iszero\n  tag_9\n  jumpi\n  swap2\n  dup3\n  add\ntag_12:\n  dup3\n  dup2\n  gt\n  iszero\n  tag_13\n  jumpi\n  dup3\n  mload\n  dup3\n  sstore\n  swap2\n  0x20\n  add\n  swap2\n  swap1\n  0x01\n  add\n  swap1\n  jump(tag_12)\ntag_13:\ntag_9:\n  pop\n  swap1\n  pop\n  tag_14\n  swap2\n  swap1\n  tag_15\n  jump\t// in\ntag_14:\n  pop\n  swap1\n  jump\t// out\ntag_4:\n  dup3\n  dup1\n  sload\n  dup3\n  dup3\n  sstore\n  swap1\n  0x00\n  mstore\n  keccak256(0x00, 0x20)\n  swap1\n  dup2\n  add\n  swap3\n  dup3\n  iszero\n  tag_16\n  jumpi\n  swap2\n  0x20\n  mul\n  dup3\n  add\ntag_17:\n  dup3\n  dup2\n  gt\n  iszero\n  tag_18\n  jumpi\n  dup3\n  mload\n  dup3\n  swap1\n  dup1\n  mload\n  swap1\n  0x20\n  add\n  swap1\n  tag_19\n  swap3\n  swap2\n  swap1\n  tag_2\n  jump\t// in\ntag_19:\n  pop\n  swap2\n  0x20\n  add\n  swap2\n  swap1\n  0x01\n  add\n  swap1\n  jump(tag_17)\ntag_18:\ntag_16:\n  pop\n  swap1\n  pop\n  tag_20\n  swap2\n  swap1\n  tag_21\n  jump\t// in\ntag_20:\n  pop\n  swap1\n  jump\t// out\ntag_15:\ntag_22:\n  dup1\n  dup3\n  gt\n  iszero\n  tag_23\n  jumpi\n  0x00\n  dup2\n  0x00\n  swap1\n  sstore\n  pop\n  0x01\n  add\n  jump(tag_22)\ntag_23:\n  pop\n  swap1\n  jump\t// out\ntag_21:\ntag_24:\n  dup1\n  dup3\n  gt\n  iszero\n  tag_25\n  jumpi\n  0x00\n  dup2\n  dup2\n  tag_26\n  swap2\n  swap1\n  tag_27\n  jump\t// in\ntag_26:\n  pop\n  0x01\n  add\n  jump(tag_24)\ntag_25:\n  pop\n  swap1\n  jump\t// out\ntag_27:\n  pop\n  dup1\n  sload\n  tag_28\n  swap1\n  tag_8\n  jump\t// in\ntag_28:\n  0x00\n  dup3\n  sstore\n  dup1\n  0x1f\n  lt\n  tag_30\n  jumpi\n  pop\n  jump(tag_29)\ntag_30:\n  0x1f\n  add\n  0x20\n  swap1\n  div\n  swap1\n  0x00\n  mstore\n  keccak256(0x00, 0x20)\n  swap1\n  dup2\n  add\n  swap1\n  tag_31\n  swap2\n  swap1\n  tag_15\n  jump\t// in\ntag_31:\ntag_29:\n  pop\n  jump\t// out\n    /* \"#utility.yul\":7:327   */\ntag_8:\n  0x00\n    /* \"#utility.yul\":88:89   */\n  0x02\n    /* \"#utility.yul\":82:86   */\n  dup3\n    /* \"#utility.yul\":78:90   */\n  div\n    /* \"#utility.yul\":68:90   */\n  swap1\n  pop\n    /* \"#utility.yul\":135:136   */\n  0x01\n    /* \"#utility.yul\":129:133   */\n  dup3\n    /* \"#utility.yul\":125:137   */\n  and\n    /* \"#utility.yul\":156:174   */\n  dup1\n    /* \"#utility.yul\":146:148   */\n  tag_34\n  jumpi\n    /* \"#utility.yul\":212:216   */\n  0x7f\n    /* \"#utility.yul\":204:210   */\n  dup3\n    /* \"#utility.yul\":200:217   */\n  and\n    /* \"#utility.yul\":190:217   */\n  swap2\n  pop\n    /* \"#utility.yul\":146:148   */\ntag_34:\n    /* \"#utility.yul\":274:276   */\n  0x20\n    /* \"#utility.yul\":266:272   */\n  dup3\n    /* \"#utility.yul\":263:277   */\n  lt\n    /* \"#utility.yul\":243:261   */\n  dup2\n    /* \"#utility.yul\":240:278   */\n  eq\n    /* \"#utility.yul\":237:239   */\n  iszero\n  tag_35\n  jumpi\n    /* \"#utility.yul\":293:311   */\n  tag_36\n  tag_37\n  jump\t// in\ntag_36:\n    /* \"#utility.yul\":237:239   */\ntag_35:\n    /* \"#utility.yul\":58:327   */\n  pop\n  swap2\n  swap1\n  pop\n  jump\t// out\n    /* \"#utility.yul\":333:513   */\ntag_37:\n    /* \"#utility.yul\":381:458   */\n  0x4e487b7100000000000000000000000000000000000000000000000000000000\n    /* \"#utility.yul\":378:379   */\n  0x00\n    /* \"#utility.yul\":371:459   */\n  mstore\n    /* \"#utility.yul\":478:482   */\n  0x22\n    /* \"#utility.yul\":475:476   */\n  0x04\n    /* \"#utility.yul\":468:483   */\n  mstore\n    /* \"#utility.yul\":502:506   */\n  0x24\n    /* \"#utility.yul\":499:500   */\n  0x00\n    /* \"#utility.yul\":492:507   */\n  revert\n    /* \"contracts/Basics101.sol\":62:608  contract Basics101 {... */\ntag_6:\n  dataSize(sub_0)\n  dup1\n  dataOffset(sub_0)\n  0x00\n  codecopy\n  0x00\n  return\nstop\n\nsub_0: assembly {\n        /* \"contracts/Basics101.sol\":62:608  contract Basics101 {... */\n      mstore(0x40, 0x80)\n      callvalue\n      dup1\n      iszero\n      tag_1\n      jumpi\n      0x00\n      dup1\n      revert\n    tag_1:\n      pop\n      jumpi(tag_2, lt(calldatasize, 0x04))\n      shr(0xe0, calldataload(0x00))\n      dup1\n      0x310495ab\n      eq\n      tag_3\n      jumpi\n      dup1\n      0x48b15166\n      eq\n      tag_4\n      jumpi\n      dup1\n      0x67e404ce\n      eq\n      tag_5\n      jumpi\n      dup1\n      0xc9116b69\n      eq\n      tag_6\n      jumpi\n    tag_2:\n      0x00\n      dup1\n      revert\n        /* \"contracts/Basics101.sol\":539:605  string[] public tokenNames = ['ChainLink', 'Polygon', 'DodgeCoin'] */\n    tag_3:\n      tag_7\n      0x04\n      dup1\n      calldatasize\n      sub\n      dup2\n      add\n      swap1\n      tag_8\n      swap2\n      swap1\n      tag_9\n      jump\t// in\n    tag_8:\n      tag_10\n      jump\t// in\n    tag_7:\n      mload(0x40)\n      tag_11\n      swap2\n      swap1\n      tag_12\n      jump\t// in\n    tag_11:\n      mload(0x40)\n      dup1\n      swap2\n      sub\n      swap1\n      return\n        /* \"contracts/Basics101.sol\":436:478  uint256 public blockTime = block.timestamp */\n    tag_4:\n      tag_13\n      tag_14\n      jump\t// in\n    tag_13:\n      mload(0x40)\n      tag_15\n      swap2\n      swap1\n      tag_16\n      jump\t// in\n    tag_15:\n      mload(0x40)\n      dup1\n      swap2\n      sub\n      swap1\n      return\n        /* \"contracts/Basics101.sol\":484:518  address public sender = msg.sender */\n    tag_5:\n      tag_17\n      tag_18\n      jump\t// in\n    tag_17:\n      mload(0x40)\n      tag_19\n      swap2\n      swap1\n      tag_20\n      jump\t// in\n    tag_19:\n      mload(0x40)\n      dup1\n      swap2\n      sub\n      swap1\n      return\n        /* \"contracts/Basics101.sol\":112:141  uint256 public myBalance = 30 */\n    tag_6:\n      tag_21\n      tag_22\n      jump\t// in\n    tag_21:\n      mload(0x40)\n      tag_23\n      swap2\n      swap1\n      tag_16\n      jump\t// in\n    tag_23:\n      mload(0x40)\n      dup1\n      swap2\n      sub\n      swap1\n      return\n        /* \"contracts/Basics101.sol\":539:605  string[] public tokenNames = ['ChainLink', 'Polygon', 'DodgeCoin'] */\n    tag_10:\n      0x06\n      dup2\n      dup2\n      sload\n      dup2\n      lt\n      tag_24\n      jumpi\n      0x00\n      dup1\n      revert\n    tag_24:\n      swap1\n      0x00\n      mstore\n      keccak256(0x00, 0x20)\n      add\n      0x00\n      swap2\n      pop\n      swap1\n      pop\n      dup1\n      sload\n      tag_26\n      swap1\n      tag_27\n      jump\t// in\n    tag_26:\n      dup1\n      0x1f\n      add\n      0x20\n      dup1\n      swap2\n      div\n      mul\n      0x20\n      add\n      mload(0x40)\n      swap1\n      dup2\n      add\n      0x40\n      mstore\n      dup1\n      swap3\n      swap2\n      swap1\n      dup2\n      dup2\n      mstore\n      0x20\n      add\n      dup3\n      dup1\n      sload\n      tag_28\n      swap1\n      tag_27\n      jump\t// in\n    tag_28:\n      dup1\n      iszero\n      tag_29\n      jumpi\n      dup1\n      0x1f\n      lt\n      tag_30\n      jumpi\n      0x0100\n      dup1\n      dup4\n      sload\n      div\n      mul\n      dup4\n      mstore\n      swap2\n      0x20\n      add\n      swap2\n      jump(tag_29)\n    tag_30:\n      dup3\n      add\n      swap2\n      swap1\n      0x00\n      mstore\n      keccak256(0x00, 0x20)\n      swap1\n    tag_31:\n      dup2\n      sload\n      dup2\n      mstore\n      swap1\n      0x01\n      add\n      swap1\n      0x20\n      add\n      dup1\n      dup4\n      gt\n      tag_31\n      jumpi\n      dup3\n      swap1\n      sub\n      0x1f\n      and\n      dup3\n      add\n      swap2\n    tag_29:\n      pop\n      pop\n      pop\n      pop\n      pop\n      dup2\n      jump\t// out\n        /* \"contracts/Basics101.sol\":436:478  uint256 public blockTime = block.timestamp */\n    tag_14:\n      sload(0x04)\n      dup2\n      jump\t// out\n        /* \"contracts/Basics101.sol\":484:518  address public sender = msg.sender */\n    tag_18:\n      0x05\n      0x00\n      swap1\n      sload\n      swap1\n      0x0100\n      exp\n      swap1\n      div\n      0xffffffffffffffffffffffffffffffffffffffff\n      and\n      dup2\n      jump\t// out\n        /* \"contracts/Basics101.sol\":112:141  uint256 public myBalance = 30 */\n    tag_22:\n      sload(0x00)\n      dup2\n      jump\t// out\n        /* \"#utility.yul\":7:146   */\n    tag_33:\n      0x00\n        /* \"#utility.yul\":91:97   */\n      dup2\n        /* \"#utility.yul\":78:98   */\n      calldataload\n        /* \"#utility.yul\":69:98   */\n      swap1\n      pop\n        /* \"#utility.yul\":107:140   */\n      tag_35\n        /* \"#utility.yul\":134:139   */\n      dup2\n        /* \"#utility.yul\":107:140   */\n      tag_36\n      jump\t// in\n    tag_35:\n        /* \"#utility.yul\":59:146   */\n      swap3\n      swap2\n      pop\n      pop\n      jump\t// out\n        /* \"#utility.yul\":152:414   */\n    tag_9:\n      0x00\n        /* \"#utility.yul\":260:262   */\n      0x20\n        /* \"#utility.yul\":248:257   */\n      dup3\n        /* \"#utility.yul\":239:246   */\n      dup5\n        /* \"#utility.yul\":235:258   */\n      sub\n        /* \"#utility.yul\":231:263   */\n      slt\n        /* \"#utility.yul\":228:230   */\n      iszero\n      tag_38\n      jumpi\n        /* \"#utility.yul\":276:277   */\n      0x00\n        /* \"#utility.yul\":273:274   */\n      dup1\n        /* \"#utility.yul\":266:278   */\n      revert\n        /* \"#utility.yul\":228:230   */\n    tag_38:\n        /* \"#utility.yul\":319:320   */\n      0x00\n        /* \"#utility.yul\":344:397   */\n      tag_39\n        /* \"#utility.yul\":389:396   */\n      dup5\n        /* \"#utility.yul\":380:386   */\n      dup3\n        /* \"#utility.yul\":369:378   */\n      dup6\n        /* \"#utility.yul\":365:387   */\n      add\n        /* \"#utility.yul\":344:397   */\n      tag_33\n      jump\t// in\n    tag_39:\n        /* \"#utility.yul\":334:397   */\n      swap2\n      pop\n        /* \"#utility.yul\":290:407   */\n      pop\n        /* \"#utility.yul\":218:414   */\n      swap3\n      swap2\n      pop\n      pop\n      jump\t// out\n        /* \"#utility.yul\":420:538   */\n    tag_40:\n        /* \"#utility.yul\":507:531   */\n      tag_42\n        /* \"#utility.yul\":525:530   */\n      dup2\n        /* \"#utility.yul\":507:531   */\n      tag_43\n      jump\t// in\n    tag_42:\n        /* \"#utility.yul\":502:505   */\n      dup3\n        /* \"#utility.yul\":495:532   */\n      mstore\n        /* \"#utility.yul\":485:538   */\n      pop\n      pop\n      jump\t// out\n        /* \"#utility.yul\":544:908   */\n    tag_44:\n      0x00\n        /* \"#utility.yul\":660:699   */\n      tag_46\n        /* \"#utility.yul\":693:698   */\n      dup3\n        /* \"#utility.yul\":660:699   */\n      tag_47\n      jump\t// in\n    tag_46:\n        /* \"#utility.yul\":715:786   */\n      tag_48\n        /* \"#utility.yul\":779:785   */\n      dup2\n        /* \"#utility.yul\":774:777   */\n      dup6\n        /* \"#utility.yul\":715:786   */\n      tag_49\n      jump\t// in\n    tag_48:\n        /* \"#utility.yul\":708:786   */\n      swap4\n      pop\n        /* \"#utility.yul\":795:847   */\n      tag_50\n        /* \"#utility.yul\":840:846   */\n      dup2\n        /* \"#utility.yul\":835:838   */\n      dup6\n        /* \"#utility.yul\":828:832   */\n      0x20\n        /* \"#utility.yul\":821:826   */\n      dup7\n        /* \"#utility.yul\":817:833   */\n      add\n        /* \"#utility.yul\":795:847   */\n      tag_51\n      jump\t// in\n    tag_50:\n        /* \"#utility.yul\":872:901   */\n      tag_52\n        /* \"#utility.yul\":894:900   */\n      dup2\n        /* \"#utility.yul\":872:901   */\n      tag_53\n      jump\t// in\n    tag_52:\n        /* \"#utility.yul\":867:870   */\n      dup5\n        /* \"#utility.yul\":863:902   */\n      add\n        /* \"#utility.yul\":856:902   */\n      swap2\n      pop\n        /* \"#utility.yul\":636:908   */\n      pop\n      swap3\n      swap2\n      pop\n      pop\n      jump\t// out\n        /* \"#utility.yul\":914:1032   */\n    tag_54:\n        /* \"#utility.yul\":1001:1025   */\n      tag_56\n        /* \"#utility.yul\":1019:1024   */\n      dup2\n        /* \"#utility.yul\":1001:1025   */\n      tag_57\n      jump\t// in\n    tag_56:\n        /* \"#utility.yul\":996:999   */\n      dup3\n        /* \"#utility.yul\":989:1026   */\n      mstore\n        /* \"#utility.yul\":979:1032   */\n      pop\n      pop\n      jump\t// out\n        /* \"#utility.yul\":1038:1260   */\n    tag_20:\n      0x00\n        /* \"#utility.yul\":1169:1171   */\n      0x20\n        /* \"#utility.yul\":1158:1167   */\n      dup3\n        /* \"#utility.yul\":1154:1172   */\n      add\n        /* \"#utility.yul\":1146:1172   */\n      swap1\n      pop\n        /* \"#utility.yul\":1182:1253   */\n      tag_59\n        /* \"#utility.yul\":1250:1251   */\n      0x00\n        /* \"#utility.yul\":1239:1248   */\n      dup4\n        /* \"#utility.yul\":1235:1252   */\n      add\n        /* \"#utility.yul\":1226:1232   */\n      dup5\n        /* \"#utility.yul\":1182:1253   */\n      tag_40\n      jump\t// in\n    tag_59:\n        /* \"#utility.yul\":1136:1260   */\n      swap3\n      swap2\n      pop\n      pop\n      jump\t// out\n        /* \"#utility.yul\":1266:1579   */\n    tag_12:\n      0x00\n        /* \"#utility.yul\":1417:1419   */\n      0x20\n        /* \"#utility.yul\":1406:1415   */\n      dup3\n        /* \"#utility.yul\":1402:1420   */\n      add\n        /* \"#utility.yul\":1394:1420   */\n      swap1\n      pop\n        /* \"#utility.yul\":1466:1475   */\n      dup2\n        /* \"#utility.yul\":1460:1464   */\n      dup2\n        /* \"#utility.yul\":1456:1476   */\n      sub\n        /* \"#utility.yul\":1452:1453   */\n      0x00\n        /* \"#utility.yul\":1441:1450   */\n      dup4\n        /* \"#utility.yul\":1437:1454   */\n      add\n        /* \"#utility.yul\":1430:1477   */\n      mstore\n        /* \"#utility.yul\":1494:1572   */\n      tag_61\n        /* \"#utility.yul\":1567:1571   */\n      dup2\n        /* \"#utility.yul\":1558:1564   */\n      dup5\n        /* \"#utility.yul\":1494:1572   */\n      tag_44\n      jump\t// in\n    tag_61:\n        /* \"#utility.yul\":1486:1572   */\n      swap1\n      pop\n        /* \"#utility.yul\":1384:1579   */\n      swap3\n      swap2\n      pop\n      pop\n      jump\t// out\n        /* \"#utility.yul\":1585:1807   */\n    tag_16:\n      0x00\n        /* \"#utility.yul\":1716:1718   */\n      0x20\n        /* \"#utility.yul\":1705:1714   */\n      dup3\n        /* \"#utility.yul\":1701:1719   */\n      add\n        /* \"#utility.yul\":1693:1719   */\n      swap1\n      pop\n        /* \"#utility.yul\":1729:1800   */\n      tag_63\n        /* \"#utility.yul\":1797:1798   */\n      0x00\n        /* \"#utility.yul\":1786:1795   */\n      dup4\n        /* \"#utility.yul\":1782:1799   */\n      add\n        /* \"#utility.yul\":1773:1779   */\n      dup5\n        /* \"#utility.yul\":1729:1800   */\n      tag_54\n      jump\t// in\n    tag_63:\n        /* \"#utility.yul\":1683:1807   */\n      swap3\n      swap2\n      pop\n      pop\n      jump\t// out\n        /* \"#utility.yul\":1813:1912   */\n    tag_47:\n      0x00\n        /* \"#utility.yul\":1899:1904   */\n      dup2\n        /* \"#utility.yul\":1893:1905   */\n      mload\n        /* \"#utility.yul\":1883:1905   */\n      swap1\n      pop\n        /* \"#utility.yul\":1872:1912   */\n      swap2\n      swap1\n      pop\n      jump\t// out\n        /* \"#utility.yul\":1918:2087   */\n    tag_49:\n      0x00\n        /* \"#utility.yul\":2036:2042   */\n      dup3\n        /* \"#utility.yul\":2031:2034   */\n      dup3\n        /* \"#utility.yul\":2024:2043   */\n      mstore\n        /* \"#utility.yul\":2076:2080   */\n      0x20\n        /* \"#utility.yul\":2071:2074   */\n      dup3\n        /* \"#utility.yul\":2067:2081   */\n      add\n        /* \"#utility.yul\":2052:2081   */\n      swap1\n      pop\n        /* \"#utility.yul\":2014:2087   */\n      swap3\n      swap2\n      pop\n      pop\n      jump\t// out\n        /* \"#utility.yul\":2093:2189   */\n    tag_43:\n      0x00\n        /* \"#utility.yul\":2159:2183   */\n      tag_67\n        /* \"#utility.yul\":2177:2182   */\n      dup3\n        /* \"#utility.yul\":2159:2183   */\n      tag_68\n      jump\t// in\n    tag_67:\n        /* \"#utility.yul\":2148:2183   */\n      swap1\n      pop\n        /* \"#utility.yul\":2138:2189   */\n      swap2\n      swap1\n      pop\n      jump\t// out\n        /* \"#utility.yul\":2195:2321   */\n    tag_68:\n      0x00\n        /* \"#utility.yul\":2272:2314   */\n      0xffffffffffffffffffffffffffffffffffffffff\n        /* \"#utility.yul\":2265:2270   */\n      dup3\n        /* \"#utility.yul\":2261:2315   */\n      and\n        /* \"#utility.yul\":2250:2315   */\n      swap1\n      pop\n        /* \"#utility.yul\":2240:2321   */\n      swap2\n      swap1\n      pop\n      jump\t// out\n        /* \"#utility.yul\":2327:2404   */\n    tag_57:\n      0x00\n        /* \"#utility.yul\":2393:2398   */\n      dup2\n        /* \"#utility.yul\":2382:2398   */\n      swap1\n      pop\n        /* \"#utility.yul\":2372:2404   */\n      swap2\n      swap1\n      pop\n      jump\t// out\n        /* \"#utility.yul\":2410:2717   */\n    tag_51:\n        /* \"#utility.yul\":2478:2479   */\n      0x00\n        /* \"#utility.yul\":2488:2601   */\n    tag_72:\n        /* \"#utility.yul\":2502:2508   */\n      dup4\n        /* \"#utility.yul\":2499:2500   */\n      dup2\n        /* \"#utility.yul\":2496:2509   */\n      lt\n        /* \"#utility.yul\":2488:2601   */\n      iszero\n      tag_74\n      jumpi\n        /* \"#utility.yul\":2587:2588   */\n      dup1\n        /* \"#utility.yul\":2582:2585   */\n      dup3\n        /* \"#utility.yul\":2578:2589   */\n      add\n        /* \"#utility.yul\":2572:2590   */\n      mload\n        /* \"#utility.yul\":2568:2569   */\n      dup2\n        /* \"#utility.yul\":2563:2566   */\n      dup5\n        /* \"#utility.yul\":2559:2570   */\n      add\n        /* \"#utility.yul\":2552:2591   */\n      mstore\n        /* \"#utility.yul\":2524:2526   */\n      0x20\n        /* \"#utility.yul\":2521:2522   */\n      dup2\n        /* \"#utility.yul\":2517:2527   */\n      add\n        /* \"#utility.yul\":2512:2527   */\n      swap1\n      pop\n        /* \"#utility.yul\":2488:2601   */\n      jump(tag_72)\n    tag_74:\n        /* \"#utility.yul\":2619:2625   */\n      dup4\n        /* \"#utility.yul\":2616:2617   */\n      dup2\n        /* \"#utility.yul\":2613:2626   */\n      gt\n        /* \"#utility.yul\":2610:2612   */\n      iszero\n      tag_75\n      jumpi\n        /* \"#utility.yul\":2699:2700   */\n      0x00\n        /* \"#utility.yul\":2690:2696   */\n      dup5\n        /* \"#utility.yul\":2685:2688   */\n      dup5\n        /* \"#utility.yul\":2681:2697   */\n      add\n        /* \"#utility.yul\":2674:2701   */\n      mstore\n        /* \"#utility.yul\":2610:2612   */\n    tag_75:\n        /* \"#utility.yul\":2459:2717   */\n      pop\n      pop\n      pop\n      pop\n      jump\t// out\n        /* \"#utility.yul\":2723:3043   */\n    tag_27:\n      0x00\n        /* \"#utility.yul\":2804:2805   */\n      0x02\n        /* \"#utility.yul\":2798:2802   */\n      dup3\n        /* \"#utility.yul\":2794:2806   */\n      div\n        /* \"#utility.yul\":2784:2806   */\n      swap1\n      pop\n        /* \"#utility.yul\":2851:2852   */\n      0x01\n        /* \"#utility.yul\":2845:2849   */\n      dup3\n        /* \"#utility.yul\":2841:2853   */\n      and\n        /* \"#utility.yul\":2872:2890   */\n      dup1\n        /* \"#utility.yul\":2862:2864   */\n      tag_77\n      jumpi\n        /* \"#utility.yul\":2928:2932   */\n      0x7f\n        /* \"#utility.yul\":2920:2926   */\n      dup3\n        /* \"#utility.yul\":2916:2933   */\n      and\n        /* \"#utility.yul\":2906:2933   */\n      swap2\n      pop\n        /* \"#utility.yul\":2862:2864   */\n    tag_77:\n        /* \"#utility.yul\":2990:2992   */\n      0x20\n        /* \"#utility.yul\":2982:2988   */\n      dup3\n        /* \"#utility.yul\":2979:2993   */\n      lt\n        /* \"#utility.yul\":2959:2977   */\n      dup2\n        /* \"#utility.yul\":2956:2994   */\n      eq\n        /* \"#utility.yul\":2953:2955   */\n      iszero\n      tag_78\n      jumpi\n        /* \"#utility.yul\":3009:3027   */\n      tag_79\n      tag_80\n      jump\t// in\n    tag_79:\n        /* \"#utility.yul\":2953:2955   */\n    tag_78:\n        /* \"#utility.yul\":2774:3043   */\n      pop\n      swap2\n      swap1\n      pop\n      jump\t// out\n        /* \"#utility.yul\":3049:3229   */\n    tag_80:\n        /* \"#utility.yul\":3097:3174   */\n      0x4e487b7100000000000000000000000000000000000000000000000000000000\n        /* \"#utility.yul\":3094:3095   */\n      0x00\n        /* \"#utility.yul\":3087:3175   */\n      mstore\n        /* \"#utility.yul\":3194:3198   */\n      0x22\n        /* \"#utility.yul\":3191:3192   */\n      0x04\n        /* \"#utility.yul\":3184:3199   */\n      mstore\n        /* \"#utility.yul\":3218:3222   */\n      0x24\n        /* \"#utility.yul\":3215:3216   */\n      0x00\n        /* \"#utility.yul\":3208:3223   */\n      revert\n        /* \"#utility.yul\":3235:3337   */\n    tag_53:\n      0x00\n        /* \"#utility.yul\":3327:3329   */\n      0x1f\n        /* \"#utility.yul\":3323:3330   */\n      not\n        /* \"#utility.yul\":3318:3320   */\n      0x1f\n        /* \"#utility.yul\":3311:3316   */\n      dup4\n        /* \"#utility.yul\":3307:3321   */\n      add\n        /* \"#utility.yul\":3303:3331   */\n      and\n        /* \"#utility.yul\":3293:3331   */\n      swap1\n      pop\n        /* \"#utility.yul\":3283:3337   */\n      swap2\n      swap1\n      pop\n      jump\t// out\n        /* \"#utility.yul\":3343:3465   */\n    tag_36:\n        /* \"#utility.yul\":3416:3440   */\n      tag_84\n        /* \"#utility.yul\":3434:3439   */\n      dup2\n        /* \"#utility.yul\":3416:3440   */\n      tag_57\n      jump\t// in\n    tag_84:\n        /* \"#utility.yul\":3409:3414   */\n      dup2\n        /* \"#utility.yul\":3406:3441   */\n      eq\n        /* \"#utility.yul\":3396:3398   */\n      tag_85\n      jumpi\n        /* \"#utility.yul\":3455:3456   */\n      0x00\n        /* \"#utility.yul\":3452:3453   */\n      dup1\n        /* \"#utility.yul\":3445:3457   */\n      revert\n        /* \"#utility.yul\":3396:3398   */\n    tag_85:\n        /* \"#utility.yul\":3386:3465   */\n      pop\n      jump\t// out\n\n    auxdata: 0xa26469706673582212200cc5a0cda1f9e3a206ad0e72ba4ec19c9e786cff0e10f55a5781be944602621864736f6c63430008000033\n}\n",
				"bytecode": {
					"linkReferences": {},
					"object": "6080604052601e6000557ffffffffffffffffffffffffffffffffffffffffffffffffffffffffffffffffc6001556040518060400160405280600981526020017f4570696320436f696e0000000000000000000000000000000000000000000000815250600290805190602001906100789291906101b6565b506001600360006101000a81548160ff0219169083151502179055504260045533600560006101000a81548173ffffffffffffffffffffffffffffffffffffffff021916908373ffffffffffffffffffffffffffffffffffffffff16021790555060405180606001604052806040518060400160405280600981526020017f436861696e4c696e6b000000000000000000000000000000000000000000000081525081526020016040518060400160405280600781526020017f506f6c79676f6e0000000000000000000000000000000000000000000000000081525081526020016040518060400160405280600981526020017f446f646765436f696e000000000000000000000000000000000000000000000081525081525060069060036101a392919061023c565b503480156101b057600080fd5b5061037e565b8280546101c29061031d565b90600052602060002090601f0160209004810192826101e4576000855561022b565b82601f106101fd57805160ff191683800117855561022b565b8280016001018555821561022b579182015b8281111561022a57825182559160200191906001019061020f565b5b509050610238919061029c565b5090565b82805482825590600052602060002090810192821561028b579160200282015b8281111561028a57825182908051906020019061027a9291906101b6565b509160200191906001019061025c565b5b50905061029891906102b9565b5090565b5b808211156102b557600081600090555060010161029d565b5090565b5b808211156102d957600081816102d091906102dd565b506001016102ba565b5090565b5080546102e99061031d565b6000825580601f106102fb575061031a565b601f016020900490600052602060002090810190610319919061029c565b5b50565b6000600282049050600182168061033557607f821691505b602082108114156103495761034861034f565b5b50919050565b7f4e487b7100000000000000000000000000000000000000000000000000000000600052602260045260246000fd5b6103f08061038d6000396000f3fe608060405234801561001057600080fd5b506004361061004c5760003560e01c8063310495ab1461005157806348b151661461008157806367e404ce1461009f578063c9116b69146100bd575b600080fd5b61006b600480360381019061006691906101ce565b6100db565b6040516100789190610269565b60405180910390f35b610089610187565b604051610096919061028b565b60405180910390f35b6100a761018d565b6040516100b4919061024e565b60405180910390f35b6100c56101b3565b6040516100d2919061028b565b60405180910390f35b600681815481106100eb57600080fd5b90600052602060002001600091509050805461010690610331565b80601f016020809104026020016040519081016040528092919081815260200182805461013290610331565b801561017f5780601f106101545761010080835404028352916020019161017f565b820191906000526020600020905b81548152906001019060200180831161016257829003601f168201915b505050505081565b60045481565b600560009054906101000a900473ffffffffffffffffffffffffffffffffffffffff1681565b60005481565b6000813590506101c8816103a3565b92915050565b6000602082840312156101e057600080fd5b60006101ee848285016101b9565b91505092915050565b610200816102c2565b82525050565b6000610211826102a6565b61021b81856102b1565b935061022b8185602086016102fe565b61023481610392565b840191505092915050565b610248816102f4565b82525050565b600060208201905061026360008301846101f7565b92915050565b600060208201905081810360008301526102838184610206565b905092915050565b60006020820190506102a0600083018461023f565b92915050565b600081519050919050565b600082825260208201905092915050565b60006102cd826102d4565b9050919050565b600073ffffffffffffffffffffffffffffffffffffffff82169050919050565b6000819050919050565b60005b8381101561031c578082015181840152602081019050610301565b8381111561032b576000848401525b50505050565b6000600282049050600182168061034957607f821691505b6020821081141561035d5761035c610363565b5b50919050565b7f4e487b7100000000000000000000000000000000000000000000000000000000600052602260045260246000fd5b6000601f19601f8301169050919050565b6103ac816102f4565b81146103b757600080fd5b5056fea26469706673582212200cc5a0cda1f9e3a206ad0e72ba4ec19c9e786cff0e10f55a5781be944602621864736f6c63430008000033",
					"opcodes": "PUSH1 0x80 PUSH1 0x40 MSTORE PUSH1 0x1E PUSH1 0x0 SSTORE PUSH32 0xFFFFFFFFFFFFFFFFFFFFFFFFFFFFFFFFFFFFFFFFFFFFFFFFFFFFFFFFFFFFFFFC PUSH1 0x1 SSTORE PUSH1 0x40 MLOAD DUP1 PUSH1 0x40 ADD PUSH1 0x40 MSTORE DUP1 PUSH1 0x9 DUP2 MSTORE PUSH1 0x20 ADD PUSH32 0x4570696320436F696E0000000000000000000000000000000000000000000000 DUP2 MSTORE POP PUSH1 0x2 SWAP1 DUP1 MLOAD SWAP1 PUSH1 0x20 ADD SWAP1 PUSH2 0x78 SWAP3 SWAP2 SWAP1 PUSH2 0x1B6 JUMP JUMPDEST POP PUSH1 0x1 PUSH1 0x3 PUSH1 0x0 PUSH2 0x100 EXP DUP2 SLOAD DUP2 PUSH1 0xFF MUL NOT AND SWAP1 DUP4 ISZERO ISZERO MUL OR SWAP1 SSTORE POP TIMESTAMP PUSH1 0x4 SSTORE CALLER PUSH1 0x5 PUSH1 0x0 PUSH2 0x100 EXP DUP2 SLOAD DUP2 PUSH20 0xFFFFFFFFFFFFFFFFFFFFFFFFFFFFFFFFFFFFFFFF MUL NOT AND SWAP1 DUP4 PUSH20 0xFFFFFFFFFFFFFFFFFFFFFFFFFFFFFFFFFFFFFFFF AND MUL OR SWAP1 SSTORE POP PUSH1 0x40 MLOAD DUP1 PUSH1 0x60 ADD PUSH1 0x40 MSTORE DUP1 PUSH1 0x40 MLOAD DUP1 PUSH1 0x40 ADD PUSH1 0x40 MSTORE DUP1 PUSH1 0x9 DUP2 MSTORE PUSH1 0x20 ADD PUSH32 0x436861696E4C696E6B0000000000000000000000000000000000000000000000 DUP2 MSTORE POP DUP2 MSTORE PUSH1 0x20 ADD PUSH1 0x40 MLOAD DUP1 PUSH1 0x40 ADD PUSH1 0x40 MSTORE DUP1 PUSH1 0x7 DUP2 MSTORE PUSH1 0x20 ADD PUSH32 0x506F6C79676F6E00000000000000000000000000000000000000000000000000 DUP2 MSTORE POP DUP2 MSTORE PUSH1 0x20 ADD PUSH1 0x40 MLOAD DUP1 PUSH1 0x40 ADD PUSH1 0x40 MSTORE DUP1 PUSH1 0x9 DUP2 MSTORE PUSH1 0x20 ADD PUSH32 0x446F646765436F696E0000000000000000000000000000000000000000000000 DUP2 MSTORE POP DUP2 MSTORE POP PUSH1 0x6 SWAP1 PUSH1 0x3 PUSH2 0x1A3 SWAP3 SWAP2 SWAP1 PUSH2 0x23C JUMP JUMPDEST POP CALLVALUE DUP1 ISZERO PUSH2 0x1B0 JUMPI PUSH1 0x0 DUP1 REVERT JUMPDEST POP PUSH2 0x37E JUMP JUMPDEST DUP3 DUP1 SLOAD PUSH2 0x1C2 SWAP1 PUSH2 0x31D JUMP JUMPDEST SWAP1 PUSH1 0x0 MSTORE PUSH1 0x20 PUSH1 0x0 KECCAK256 SWAP1 PUSH1 0x1F ADD PUSH1 0x20 SWAP1 DIV DUP2 ADD SWAP3 DUP3 PUSH2 0x1E4 JUMPI PUSH1 0x0 DUP6 SSTORE PUSH2 0x22B JUMP JUMPDEST DUP3 PUSH1 0x1F LT PUSH2 0x1FD JUMPI DUP1 MLOAD PUSH1 0xFF NOT AND DUP4 DUP1 ADD OR DUP6 SSTORE PUSH2 0x22B JUMP JUMPDEST DUP3 DUP1 ADD PUSH1 0x1 ADD DUP6 SSTORE DUP3 ISZERO PUSH2 0x22B JUMPI SWAP2 DUP3 ADD JUMPDEST DUP3 DUP2 GT ISZERO PUSH2 0x22A JUMPI DUP3 MLOAD DUP3 SSTORE SWAP2 PUSH1 0x20 ADD SWAP2 SWAP1 PUSH1 0x1 ADD SWAP1 PUSH2 0x20F JUMP JUMPDEST JUMPDEST POP SWAP1 POP PUSH2 0x238 SWAP2 SWAP1 PUSH2 0x29C JUMP JUMPDEST POP SWAP1 JUMP JUMPDEST DUP3 DUP1 SLOAD DUP3 DUP3 SSTORE SWAP1 PUSH1 0x0 MSTORE PUSH1 0x20 PUSH1 0x0 KECCAK256 SWAP1 DUP2 ADD SWAP3 DUP3 ISZERO PUSH2 0x28B JUMPI SWAP2 PUSH1 0x20 MUL DUP3 ADD JUMPDEST DUP3 DUP2 GT ISZERO PUSH2 0x28A JUMPI DUP3 MLOAD DUP3 SWAP1 DUP1 MLOAD SWAP1 PUSH1 0x20 ADD SWAP1 PUSH2 0x27A SWAP3 SWAP2 SWAP1 PUSH2 0x1B6 JUMP JUMPDEST POP SWAP2 PUSH1 0x20 ADD SWAP2 SWAP1 PUSH1 0x1 ADD SWAP1 PUSH2 0x25C JUMP JUMPDEST JUMPDEST POP SWAP1 POP PUSH2 0x298 SWAP2 SWAP1 PUSH2 0x2B9 JUMP JUMPDEST POP SWAP1 JUMP JUMPDEST JUMPDEST DUP1 DUP3 GT ISZERO PUSH2 0x2B5 JUMPI PUSH1 0x0 DUP2 PUSH1 0x0 SWAP1 SSTORE POP PUSH1 0x1 ADD PUSH2 0x29D JUMP JUMPDEST POP SWAP1 JUMP JUMPDEST JUMPDEST DUP1 DUP3 GT ISZERO PUSH2 0x2D9 JUMPI PUSH1 0x0 DUP2 DUP2 PUSH2 0x2D0 SWAP2 SWAP1 PUSH2 0x2DD JUMP JUMPDEST POP PUSH1 0x1 ADD PUSH2 0x2BA JUMP JUMPDEST POP SWAP1 JUMP JUMPDEST POP DUP1 SLOAD PUSH2 0x2E9 SWAP1 PUSH2 0x31D JUMP JUMPDEST PUSH1 0x0 DUP3 SSTORE DUP1 PUSH1 0x1F LT PUSH2 0x2FB JUMPI POP PUSH2 0x31A JUMP JUMPDEST PUSH1 0x1F ADD PUSH1 0x20 SWAP1 DIV SWAP1 PUSH1 0x0 MSTORE PUSH1 0x20 PUSH1 0x0 KECCAK256 SWAP1 DUP2 ADD SWAP1 PUSH2 0x319 SWAP2 SWAP1 PUSH2 0x29C JUMP JUMPDEST JUMPDEST POP JUMP JUMPDEST PUSH1 0x0 PUSH1 0x2 DUP3 DIV SWAP1 POP PUSH1 0x1 DUP3 AND DUP1 PUSH2 0x335 JUMPI PUSH1 0x7F DUP3 AND SWAP2 POP JUMPDEST PUSH1 0x20 DUP3 LT DUP2 EQ ISZERO PUSH2 0x349 JUMPI PUSH2 0x348 PUSH2 0x34F JUMP JUMPDEST JUMPDEST POP SWAP2 SWAP1 POP JUMP JUMPDEST PUSH32 0x4E487B7100000000000000000000000000000000000000000000000000000000 PUSH1 0x0 MSTORE PUSH1 0x22 PUSH1 0x4 MSTORE PUSH1 0x24 PUSH1 0x0 REVERT JUMPDEST PUSH2 0x3F0 DUP1 PUSH2 0x38D PUSH1 0x0 CODECOPY PUSH1 0x0 RETURN INVALID PUSH1 0x80 PUSH1 0x40 MSTORE CALLVALUE DUP1 ISZERO PUSH2 0x10 JUMPI PUSH1 0x0 DUP1 REVERT JUMPDEST POP PUSH1 0x4 CALLDATASIZE LT PUSH2 0x4C JUMPI PUSH1 0x0 CALLDATALOAD PUSH1 0xE0 SHR DUP1 PUSH4 0x310495AB EQ PUSH2 0x51 JUMPI DUP1 PUSH4 0x48B15166 EQ PUSH2 0x81 JUMPI DUP1 PUSH4 0x67E404CE EQ PUSH2 0x9F JUMPI DUP1 PUSH4 0xC9116B69 EQ PUSH2 0xBD JUMPI JUMPDEST PUSH1 0x0 DUP1 REVERT JUMPDEST PUSH2 0x6B PUSH1 0x4 DUP1 CALLDATASIZE SUB DUP2 ADD SWAP1 PUSH2 0x66 SWAP2 SWAP1 PUSH2 0x1CE JUMP JUMPDEST PUSH2 0xDB JUMP JUMPDEST PUSH1 0x40 MLOAD PUSH2 0x78 SWAP2 SWAP1 PUSH2 0x269 JUMP JUMPDEST PUSH1 0x40 MLOAD DUP1 SWAP2 SUB SWAP1 RETURN JUMPDEST PUSH2 0x89 PUSH2 0x187 JUMP JUMPDEST PUSH1 0x40 MLOAD PUSH2 0x96 SWAP2 SWAP1 PUSH2 0x28B JUMP JUMPDEST PUSH1 0x40 MLOAD DUP1 SWAP2 SUB SWAP1 RETURN JUMPDEST PUSH2 0xA7 PUSH2 0x18D JUMP JUMPDEST PUSH1 0x40 MLOAD PUSH2 0xB4 SWAP2 SWAP1 PUSH2 0x24E JUMP JUMPDEST PUSH1 0x40 MLOAD DUP1 SWAP2 SUB SWAP1 RETURN JUMPDEST PUSH2 0xC5 PUSH2 0x1B3 JUMP JUMPDEST PUSH1 0x40 MLOAD PUSH2 0xD2 SWAP2 SWAP1 PUSH2 0x28B JUMP JUMPDEST PUSH1 0x40 MLOAD DUP1 SWAP2 SUB SWAP1 RETURN JUMPDEST PUSH1 0x6 DUP2 DUP2 SLOAD DUP2 LT PUSH2 0xEB JUMPI PUSH1 0x0 DUP1 REVERT JUMPDEST SWAP1 PUSH1 0x0 MSTORE PUSH1 0x20 PUSH1 0x0 KECCAK256 ADD PUSH1 0x0 SWAP2 POP SWAP1 POP DUP1 SLOAD PUSH2 0x106 SWAP1 PUSH2 0x331 JUMP JUMPDEST DUP1 PUSH1 0x1F ADD PUSH1 0x20 DUP1 SWAP2 DIV MUL PUSH1 0x20 ADD PUSH1 0x40 MLOAD SWAP1 DUP2 ADD PUSH1 0x40 MSTORE DUP1 SWAP3 SWAP2 SWAP1 DUP2 DUP2 MSTORE PUSH1 0x20 ADD DUP3 DUP1 SLOAD PUSH2 0x132 SWAP1 PUSH2 0x331 JUMP JUMPDEST DUP1 ISZERO PUSH2 0x17F JUMPI DUP1 PUSH1 0x1F LT PUSH2 0x154 JUMPI PUSH2 0x100 DUP1 DUP4 SLOAD DIV MUL DUP4 MSTORE SWAP2 PUSH1 0x20 ADD SWAP2 PUSH2 0x17F JUMP JUMPDEST DUP3 ADD SWAP2 SWAP1 PUSH1 0x0 MSTORE PUSH1 0x20 PUSH1 0x0 KECCAK256 SWAP1 JUMPDEST DUP2 SLOAD DUP2 MSTORE SWAP1 PUSH1 0x1 ADD SWAP1 PUSH1 0x20 ADD DUP1 DUP4 GT PUSH2 0x162 JUMPI DUP3 SWAP1 SUB PUSH1 0x1F AND DUP3 ADD SWAP2 JUMPDEST POP POP POP POP POP DUP2 JUMP JUMPDEST PUSH1 0x4 SLOAD DUP2 JUMP JUMPDEST PUSH1 0x5 PUSH1 0x0 SWAP1 SLOAD SWAP1 PUSH2 0x100 EXP SWAP1 DIV PUSH20 0xFFFFFFFFFFFFFFFFFFFFFFFFFFFFFFFFFFFFFFFF AND DUP2 JUMP JUMPDEST PUSH1 0x0 SLOAD DUP2 JUMP JUMPDEST PUSH1 0x0 DUP2 CALLDATALOAD SWAP1 POP PUSH2 0x1C8 DUP2 PUSH2 0x3A3 JUMP JUMPDEST SWAP3 SWAP2 POP POP JUMP JUMPDEST PUSH1 0x0 PUSH1 0x20 DUP3 DUP5 SUB SLT ISZERO PUSH2 0x1E0 JUMPI PUSH1 0x0 DUP1 REVERT JUMPDEST PUSH1 0x0 PUSH2 0x1EE DUP5 DUP3 DUP6 ADD PUSH2 0x1B9 JUMP JUMPDEST SWAP2 POP POP SWAP3 SWAP2 POP POP JUMP JUMPDEST PUSH2 0x200 DUP2 PUSH2 0x2C2 JUMP JUMPDEST DUP3 MSTORE POP POP JUMP JUMPDEST PUSH1 0x0 PUSH2 0x211 DUP3 PUSH2 0x2A6 JUMP JUMPDEST PUSH2 0x21B DUP2 DUP6 PUSH2 0x2B1 JUMP JUMPDEST SWAP4 POP PUSH2 0x22B DUP2 DUP6 PUSH1 0x20 DUP7 ADD PUSH2 0x2FE JUMP JUMPDEST PUSH2 0x234 DUP2 PUSH2 0x392 JUMP JUMPDEST DUP5 ADD SWAP2 POP POP SWAP3 SWAP2 POP POP JUMP JUMPDEST PUSH2 0x248 DUP2 PUSH2 0x2F4 JUMP JUMPDEST DUP3 MSTORE POP POP JUMP JUMPDEST PUSH1 0x0 PUSH1 0x20 DUP3 ADD SWAP1 POP PUSH2 0x263 PUSH1 0x0 DUP4 ADD DUP5 PUSH2 0x1F7 JUMP JUMPDEST SWAP3 SWAP2 POP POP JUMP JUMPDEST PUSH1 0x0 PUSH1 0x20 DUP3 ADD SWAP1 POP DUP2 DUP2 SUB PUSH1 0x0 DUP4 ADD MSTORE PUSH2 0x283 DUP2 DUP5 PUSH2 0x206 JUMP JUMPDEST SWAP1 POP SWAP3 SWAP2 POP POP JUMP JUMPDEST PUSH1 0x0 PUSH1 0x20 DUP3 ADD SWAP1 POP PUSH2 0x2A0 PUSH1 0x0 DUP4 ADD DUP5 PUSH2 0x23F JUMP JUMPDEST SWAP3 SWAP2 POP POP JUMP JUMPDEST PUSH1 0x0 DUP2 MLOAD SWAP1 POP SWAP2 SWAP1 POP JUMP JUMPDEST PUSH1 0x0 DUP3 DUP3 MSTORE PUSH1 0x20 DUP3 ADD SWAP1 POP SWAP3 SWAP2 POP POP JUMP JUMPDEST PUSH1 0x0 PUSH2 0x2CD DUP3 PUSH2 0x2D4 JUMP JUMPDEST SWAP1 POP SWAP2 SWAP1 POP JUMP JUMPDEST PUSH1 0x0 PUSH20 0xFFFFFFFFFFFFFFFFFFFFFFFFFFFFFFFFFFFFFFFF DUP3 AND SWAP1 POP SWAP2 SWAP1 POP JUMP JUMPDEST PUSH1 0x0 DUP2 SWAP1 POP SWAP2 SWAP1 POP JUMP JUMPDEST PUSH1 0x0 JUMPDEST DUP4 DUP2 LT ISZERO PUSH2 0x31C JUMPI DUP1 DUP3 ADD MLOAD DUP2 DUP5 ADD MSTORE PUSH1 0x20 DUP2 ADD SWAP1 POP PUSH2 0x301 JUMP JUMPDEST DUP4 DUP2 GT ISZERO PUSH2 0x32B JUMPI PUSH1 0x0 DUP5 DUP5 ADD MSTORE JUMPDEST POP POP POP POP JUMP JUMPDEST PUSH1 0x0 PUSH1 0x2 DUP3 DIV SWAP1 POP PUSH1 0x1 DUP3 AND DUP1 PUSH2 0x349 JUMPI PUSH1 0x7F DUP3 AND SWAP2 POP JUMPDEST PUSH1 0x20 DUP3 LT DUP2 EQ ISZERO PUSH2 0x35D JUMPI PUSH2 0x35C PUSH2 0x363 JUMP JUMPDEST JUMPDEST POP SWAP2 SWAP1 POP JUMP JUMPDEST PUSH32 0x4E487B7100000000000000000000000000000000000000000000000000000000 PUSH1 0x0 MSTORE PUSH1 0x22 PUSH1 0x4 MSTORE PUSH1 0x24 PUSH1 0x0 REVERT JUMPDEST PUSH1 0x0 PUSH1 0x1F NOT PUSH1 0x1F DUP4 ADD AND SWAP1 POP SWAP2 SWAP1 POP JUMP JUMPDEST PUSH2 0x3AC DUP2 PUSH2 0x2F4 JUMP JUMPDEST DUP2 EQ PUSH2 0x3B7 JUMPI PUSH1 0x0 DUP1 REVERT JUMPDEST POP JUMP INVALID LOG2 PUSH5 0x6970667358 0x22 SLT KECCAK256 0xC 0xC5 LOG0 0xCD LOG1 0xF9 0xE3 LOG2 MOD 0xAD 0xE PUSH19 0xBA4EC19C9E786CFF0E10F55A5781BE94460262 XOR PUSH5 0x736F6C6343 STOP ADDMOD STOP STOP CALLER "
				},
				"gasEstimates": {
					"creation": {
						"codeDepositCost": "201600",
						"executionCost": "infinite",
						"totalCost": "infinite"
					},
					"external": {
						"blockTime()": "1129",
						"myBalance()": "1173",
						"sender()": "1236",
						"tokenNames(uint256)": "infinite"
					}
				},
				"methodIdentifiers": {
					"blockTime()": "48b15166",
					"myBalance()": "c9116b69",
					"sender()": "67e404ce",
					"tokenNames(uint256)": "310495ab"
				}
			},
			"storageLayout": {
				"storage": [
					{
						"astId": 4,
						"contract": "contracts/Basics101.sol:Basics101",
						"label": "myBalance",
						"offset": 0,
						"slot": "0",
						"type": "t_uint256"
					},
					{
						"astId": 8,
						"contract": "contracts/Basics101.sol:Basics101",
						"label": "txAmount",
						"offset": 0,
						"slot": "1",
						"type": "t_int256"
					},
					{
						"astId": 11,
						"contract": "contracts/Basics101.sol:Basics101",
						"label": "coinName",
						"offset": 0,
						"slot": "2",
						"type": "t_string_storage"
					},
					{
						"astId": 14,
						"contract": "contracts/Basics101.sol:Basics101",
						"label": "isValid",
						"offset": 0,
						"slot": "3",
						"type": "t_bool"
					},
					{
						"astId": 18,
						"contract": "contracts/Basics101.sol:Basics101",
						"label": "blockTime",
						"offset": 0,
						"slot": "4",
						"type": "t_uint256"
					},
					{
						"astId": 22,
						"contract": "contracts/Basics101.sol:Basics101",
						"label": "sender",
						"offset": 0,
						"slot": "5",
						"type": "t_address"
					},
					{
						"astId": 29,
						"contract": "contracts/Basics101.sol:Basics101",
						"label": "tokenNames",
						"offset": 0,
						"slot": "6",
						"type": "t_array(t_string_storage)dyn_storage"
					}
				],
				"types": {
					"t_address": {
						"encoding": "inplace",
						"label": "address",
						"numberOfBytes": "20"
					},
					"t_array(t_string_storage)dyn_storage": {
						"base": "t_string_storage",
						"encoding": "dynamic_array",
						"label": "string[]",
						"numberOfBytes": "32"
					},
					"t_bool": {
						"encoding": "inplace",
						"label": "bool",
						"numberOfBytes": "1"
					},
					"t_int256": {
						"encoding": "inplace",
						"label": "int256",
						"numberOfBytes": "32"
					},
					"t_string_storage": {
						"encoding": "bytes",
						"label": "string",
						"numberOfBytes": "32"
					},
					"t_uint256": {
						"encoding": "inplace",
						"label": "uint256",
						"numberOfBytes": "32"
					}
				}
			},
			"userdoc": {
				"kind": "user",
				"methods": {},
				"version": 1
			}
		}
	}
}